:10000E0042793A2D2D2D2D2D2D20202020202020FF
:10001E002020002020205368656E675269476520B6
:10002E00202020200020204C69616E675A68694CA0
:10003E00616F4875202000202058696E6758696EE0
:10004E00675A6869476520200020204C69616E67F9
:10005E005A68694875446965202000202020205187
:10006E00696E674875614369202020202000706109
:10007E0075736500FBE9FC5CFCC1FCEFFD45FD9270
:10008E00FDD0FDEE0000010001020104030001009D
:10009E000102010504000100010806040302000725
:1000AE000007060405040018011830303048051802
:1000BE0001183030304805180118303030304805FE
:1000CE001801183030304805010203010001020307
:1000DE0001000304050003040500050605040301E1
:1000EE0000050605040301000302010003020100DE
:1000FE001818183005181818300518183005181863
:10010E004805181818181830051818181818480522
:10011E0018183005181848050101050506060500D2
:10012E000404030302020100050504040303020094
:10013E00050504040303020001010505060605007A
:10014E0004040303020201001818181818183005C9
:10015E0018181818181848051818181818183005EF
:10016E0018181818181848051818181818183005DF
:10017E001818181818184805000101010301050187
:10018E00060108010A010C010D0100010D010F010C
:10019E0011011201140116011801190100011901B2
:1001AE001B011D011E012001220124012501000158
:1001BE002501270129012A012C012E013002000000
:1001CE00F91FF982F9DFFA37FA8AFAD8FB23FB68AE
:1001DE00FBAAFBE9FC24FC5BFC8FFCC1FCEFFD1BC6
:1001EE00FD45FD6CFD91FDB4FDD5FDF4FE12FE2D19
:1001FE00FE48FE60FE78FE86FEA3FEB6FEC9FEDA5F
:10020E00FFEBFEFAFF09FF17FF24FF30FF3CFF470D
:10021E00FF51FF5BFF64FF6DFF75FF7DFF84FF8B5A
:10022E00180418041504130415040E0813041504F9
:10023E0018041504131018041804150413041504D7
:10024E000C081304150418041304111011041304DC
:10025E00150418041A0418041604180415041504B9
:10026E0013041310110413041104110413041104C4
:10027E0013041304150818041504150C1804180497
:10028E001504130415040E0813041504180415049C
:10029E001310180418041504130415040C08130481
:1002AE001504180413041110110413041504180472
:1002BE001A04180416041804150415041304130C58
:1002CE000C041508130813041114FFFF0000F88B1B
:1002DE00F8F2F95BF9B7FA14FA66FAB9FB03FB4ABE
:1002EE00FB8FFBCFFC0BFC43FC78FCABFCDBFD086F
:1002FE00FD33FD5BFD81FDA5FDC7FDE7FE05FE217E
:10030E00FE3CFE55FE6DFE84FE99FEADFEC0FE0265
:10031E00FEE3FEF3FF02FF10FF1DFF2AFF36FF4232
:10032E00FF4CFF56FF60FF69FF71FF79FF810004EC
:10033E0017041504171017041504170415041310C9
:10034E0010041304150815041704150413041004DF
:10035E0013040E18170415041710170415041704A8
:10036E0015041318100413041508150417041504A6
:10037E00130410041304151817041504171017048A
:10038E00150417041504131010041304150815048E
:10039E00170415041304100413040E1817041A047A
:1003AE001A101A041C041A04171815041704150839
:1003BE001504170415041304100410021302131865
:1003CE0000141A041A041C041F041E041E041C0428
:1003DE001704150415041710170417041A041C0823
:1003EE001C0C100417041504151817041A041A040B
:1003FE0017041A081F081E041C041E0417081C04E8
:10040E001C041E041C041A041704150817041504F2
:06041E0017041A10FFFF95
:06000300011000011100D4
:1009B20075890185128C85138AD2A9D28C7510048F
:0809C20012088412042480FBDA
:1008DF0020B60F0510E510D39406400375100130B4
:1008EF00B6FD20B50F1510E510C394015003751018
:1008FF000630B5FD20B710E511B40105E4F5118000
:08090F000375110130B7FD2250
:100828001208DFE51164017052C293C2AF1208DFEB
:100838007F8B12097CE4F50FE50F90007C93FF1283
:100848000997050FE50FC3940540EDE51170DED259
:10085800AF7F8B12097CE4F50F7F201209977F2068
:100868001209977F201209977F201209977F20127B
:0B0878000997050FE50FC3940540DE53
:010883002252
:10042400E4F508750A01750B01E5106401706C129E
:1004340007BDE50A7003020730C2AFE508900094D7
:1004440093F50BE5089000B593F509E50B25E02439
:1004540080F582E43400F583E493F512E50B25E09E
:100464002481F582E43400F583E493F513D2AFAF2D
:10047400091509EF60111209CA120828E510640170
:1004840060EDE4F509F50A8513A00508E508C394B1
:1004940021409F751002E4F50A8097E5106402700C
:1004A4006C1207BDE50A7003020730C2AFE508907D
:1004B40000D693F50BE5089000FE93F509E50B25AE
:1004C400E02480F582E43400F583E493F512E50B2F
:1004D40025E02481F582E43400F583E493F513D216
:1004E400AFAF091509EF60111209CA120828E51007
:1004F400640260EDE4F509F50A8513A00508E50832
:10050400C39428409F751003E4F50A8097E51064AE
:1005140003706C1207BDE50A7003020730C2AFE531
:100524000890012693F50BE50890015693F509E52B
:100534000B25E02480F582E43400F583E493F5127E
:10054400E50B25E02481F582E43400F583E493F59A
:1005540013D2AFAF091509EF60111209CA120828A6
:10056400E510640360EDE4F509F50A8513A00508B8
:10057400E508C39430409F751004E4F50A8097E5BC
:10058400106404600302061E1207BDE50A7003022C
:100594000730C2AFE50825E0242EF582E43402F5E5
:1005A40083E493F50BE50825E0242FF582E4340277
:1005B400F583E493F509E50B25E024CCF582E434D6
:1005C40001F583E493F512E50B25E024CDF582E4EF
:1005D4003401F583E493F513D2AFE51064046006A7
:1005E400E4F50B020719E50BB4FF067510050206C6
:1005F4008BE50825E02430F582E43402F583E493A6
:10060400B50B0C120917C28C120944050880051297
:10061400091705088513A002058FE510640560031A
:100624000206B81207BDE50A7003020730C2AFE53F
:100634000825E0243CF582E43403F583E493F50BC8
:10064400E50825E0243DF582E43403F583E493F5DD
:1006540009E50B25E024DAF582E43402F583E4931A
:10066400F512E50B25E024DBF582E43402F583E49E
:1006740093F513D2AFE51064056004E4020719E5AD
:100684000BB4FF07751006E4F50A22E50825E024FB
:100694003EF582E43403F583E493B50B0C12091799
:1006A400C28C120944050880051209170508851330
:1006B400A002062AE510640670721207BDE50A60FE
:1006C4006BC2AFE50825E02486F582E43401F583A6
:1006D400E493F50BE50825E02487F582E43401F57D
:1006E40083E493F509E50B25E024CCF582E4340199
:1006F400F583E493F512E50B25E024CDF582E4348B
:1007040001F583E493F513D2AF1209170508E51038
:1007140064066006E4F509F50A22E508C39424405A
:0C07240006751001E4F50A8513A0809111
:0107300022A6
:03000B000209F2F5
:0909F20085128C85138AB2933240
:1007BD007F8012097CE4F50CE50C90000E93FF127E
:1007CD000997050CE50CC3941040ED7F8A12097C46
:1007DD007FC012097CE4F50CE51024FE6014146052
:1007ED001814601C14602024047026E50C90002160
:1007FD00801AE50C9000338013E50C900045800CB9
:10080D00E50C9000698005E50C90005793FF1209E7
:0A081D0097050CE50CC3941040BED3
:0108270022AE
:04091700D28CAF09C6
:02091B008F0C3F
:10091D00E50CD39400401F750DB4750E0F12082809
:10092D00150EE50ED3940050F4150DE50DD394007E
:06093D0050E8150C80DA01
:010943002291
:10094400750C96750D0A120828150DE50DD3940043
:0B09540050F4150CE50CD3940050E8A3
:01095F002275
:0809CA007F0FAE071FEE600E67
:0E09D200E4F50CE50CC3947D50F0050C80F5A7
:0109E00022F4
:100960007D6ED3EF9400EE94004010EDD3940040E0
:0B097000031D80F7EF1F70EA1E80E7F8
:01097B002259
:1009E100D3EF9400EE94004007EF1F70F31E80F0E8
:0109F10022E3
:10097C00C291C290C2928F807F017E00120960D218
:0B098C00927F027E00120960C29222DE
:10099700C291D290C2928F807F017E00120960D2ED
:0B09A700927F027E00120960C29222C3
:100884007F017E001209607F3812097C7F017E009F
:100894001209607F3812097C7F017E001209607F93
:1008A4000F12097C7F017E001209607F0812097C07
:1008B4007F017E001209607F0112097C7F0C7E009B
:1008C4001209607F0612097C7F327E001209E17FE3
:0B08D4000C12097C7F327E000209E15B
:03000000020731C3
:0C073100787FE4F6D8FD7581130207788C
:10073D000209B2E493A3F8E493A34003F68001F217
:10074D0008DFF48029E493A3F85407240CC8C333BD
:10075D00C4540F4420C8834004F456800146F6DF8C
:10076D00E4800B0102040810204080900003E47E19
:10077D00019360BCA3FF543F30E509541FFEE49381
:10078D00A360010ECF54C025E060A840B8E493A348
:10079D00FAE493A3F8E493A3C8C582C8CAC583CA73
:1007AD00F0A3C8C582C8CAC583CADFE9DEE780BE2B
:0100090000F6
:00000001FF
